{
  "contractName": "SimpleStorage",
  "abi": [
    {
      "constant": true,
      "inputs": [
        {
          "name": "",
          "type": "uint256"
        }
      ],
      "name": "hashes",
      "outputs": [
        {
          "name": "",
          "type": "string"
        }
      ],
      "payable": false,
      "stateMutability": "view",
      "type": "function"
    },
    {
      "anonymous": false,
      "inputs": [
        {
          "indexed": false,
          "name": "hash",
          "type": "string"
        },
        {
          "indexed": false,
          "name": "userAddress",
          "type": "address"
        },
        {
          "indexed": false,
          "name": "status",
          "type": "uint256"
        }
      ],
      "name": "AddNewFile",
      "type": "event"
    },
    {
      "constant": false,
      "inputs": [
        {
          "name": "userAddress",
          "type": "address"
        },
        {
          "name": "hash",
          "type": "string"
        }
      ],
      "name": "insertDoc",
      "outputs": [],
      "payable": false,
      "stateMutability": "nonpayable",
      "type": "function"
    },
    {
      "constant": true,
      "inputs": [
        {
          "name": "hashval",
          "type": "string"
        }
      ],
      "name": "isDocPresent",
      "outputs": [
        {
          "name": "",
          "type": "bool"
        }
      ],
      "payable": false,
      "stateMutability": "view",
      "type": "function"
    },
    {
      "constant": true,
      "inputs": [
        {
          "name": "userAddress",
          "type": "address"
        },
        {
          "name": "h",
          "type": "string"
        }
      ],
      "name": "isOwner",
      "outputs": [
        {
          "name": "b",
          "type": "bool"
        }
      ],
      "payable": false,
      "stateMutability": "view",
      "type": "function"
    },
    {
      "constant": true,
      "inputs": [
        {
          "name": "num",
          "type": "uint256"
        }
      ],
      "name": "displayHash",
      "outputs": [
        {
          "name": "hash",
          "type": "string"
        }
      ],
      "payable": false,
      "stateMutability": "view",
      "type": "function"
    },
    {
      "constant": true,
      "inputs": [
        {
          "name": "hash",
          "type": "string"
        }
      ],
      "name": "displayDocStatus",
      "outputs": [
        {
          "name": "status",
          "type": "uint256"
        }
      ],
      "payable": false,
      "stateMutability": "view",
      "type": "function"
    },
    {
      "constant": true,
      "inputs": [],
      "name": "displayDocCount",
      "outputs": [
        {
          "name": "count",
          "type": "uint256"
        }
      ],
      "payable": false,
      "stateMutability": "view",
      "type": "function"
    },
    {
      "constant": false,
      "inputs": [
        {
          "name": "dochash",
          "type": "string"
        },
        {
          "name": "CAaddr",
          "type": "address"
        }
      ],
      "name": "upVote",
      "outputs": [],
      "payable": false,
      "stateMutability": "nonpayable",
      "type": "function"
    },
    {
      "constant": false,
      "inputs": [
        {
          "name": "dochash",
          "type": "string"
        },
        {
          "name": "CAaddr",
          "type": "address"
        }
      ],
      "name": "downVote",
      "outputs": [],
      "payable": false,
      "stateMutability": "nonpayable",
      "type": "function"
    },
    {
      "constant": true,
      "inputs": [
        {
          "name": "dochash",
          "type": "string"
        },
        {
          "name": "addr",
          "type": "address"
        }
      ],
      "name": "isVoted",
      "outputs": [
        {
          "name": "",
          "type": "bool"
        }
      ],
      "payable": false,
      "stateMutability": "view",
      "type": "function"
    },
    {
      "constant": true,
      "inputs": [
        {
          "name": "dochash",
          "type": "string"
        }
      ],
      "name": "isAudited",
      "outputs": [
        {
          "name": "",
          "type": "bool"
        }
      ],
      "payable": false,
      "stateMutability": "view",
      "type": "function"
    },
    {
      "constant": true,
      "inputs": [
        {
          "name": "dochash",
          "type": "string"
        }
      ],
      "name": "getUpvoteCount",
      "outputs": [
        {
          "name": "",
          "type": "uint256"
        }
      ],
      "payable": false,
      "stateMutability": "view",
      "type": "function"
    },
    {
      "constant": true,
      "inputs": [
        {
          "name": "dochash",
          "type": "string"
        }
      ],
      "name": "getDownvoteCount",
      "outputs": [
        {
          "name": "",
          "type": "uint256"
        }
      ],
      "payable": false,
      "stateMutability": "view",
      "type": "function"
    },
    {
      "constant": true,
      "inputs": [
        {
          "name": "a",
          "type": "string"
        },
        {
          "name": "b",
          "type": "string"
        }
      ],
      "name": "compareStrings",
      "outputs": [
        {
          "name": "",
          "type": "bool"
        }
      ],
      "payable": false,
      "stateMutability": "view",
      "type": "function"
    }
  ],
  "bytecode": "0x608060405234801561001057600080fd5b506118db806100206000396000f3006080604052600436106100d0576000357c0100000000000000000000000000000000000000000000000000000000900463ffffffff1680631bd7af95146100d5578063353491931461015e578063501895ae146101df5780635deaff5f1461028557806365a065701461030257806387f6956514610383578063a00e68ed14610400578063a462dad4146104a6578063b3c387e61461052f578063bed34bba146105ac578063cd37996414610673578063e2bba0f914610714578063ea034f8b1461073f578063fdda2387146107c8575b600080fd5b3480156100e157600080fd5b5061015c600480360381019080803590602001908201803590602001908080601f0160208091040260200160405190810160405280939291908181526020018383808284378201915050505050509192919290803573ffffffffffffffffffffffffffffffffffffffff169060200190929190505050610869565b005b34801561016a57600080fd5b506101c5600480360381019080803590602001908201803590602001908080601f0160208091040260200160405190810160405280939291908181526020018383808284378201915050505050509192919290505050610a7b565b604051808215151515815260200191505060405180910390f35b3480156101eb57600080fd5b5061020a60048036038101908080359060200190929190505050610b2c565b6040518080602001828103825283818151815260200191508051906020019080838360005b8381101561024a57808201518184015260208101905061022f565b50505050905090810190601f1680156102775780820380516001836020036101000a031916815260200191505b509250505060405180910390f35b34801561029157600080fd5b506102ec600480360381019080803590602001908201803590602001908080601f0160208091040260200160405190810160405280939291908181526020018383808284378201915050505050509192919290505050610be7565b6040518082815260200191505060405180910390f35b34801561030e57600080fd5b50610369600480360381019080803590602001908201803590602001908080601f0160208091040260200160405190810160405280939291908181526020018383808284378201915050505050509192919290505050610c61565b604051808215151515815260200191505060405180910390f35b34801561038f57600080fd5b506103ea600480360381019080803590602001908201803590602001908080601f0160208091040260200160405190810160405280939291908181526020018383808284378201915050505050509192919290505050610d53565b6040518082815260200191505060405180910390f35b34801561040c57600080fd5b5061042b60048036038101908080359060200190929190505050610dcd565b6040518080602001828103825283818151815260200191508051906020019080838360005b8381101561046b578082015181840152602081019050610450565b50505050905090810190601f1680156104985780820380516001836020036101000a031916815260200191505b509250505060405180910390f35b3480156104b257600080fd5b5061052d600480360381019080803590602001908201803590602001908080601f0160208091040260200160405190810160405280939291908181526020018383808284378201915050505050509192919290803573ffffffffffffffffffffffffffffffffffffffff169060200190929190505050610e88565b005b34801561053b57600080fd5b50610596600480360381019080803590602001908201803590602001908080601f016020809104026020016040519081016040528093929190818152602001838380828437820191505050505050919291929050505061109a565b6040518082815260200191505060405180910390f35b3480156105b857600080fd5b50610659600480360381019080803590602001908201803590602001908080601f0160208091040260200160405190810160405280939291908181526020018383808284378201915050505050509192919290803590602001908201803590602001908080601f0160208091040260200160405190810160405280939291908181526020018383808284378201915050505050509192919290505050611111565b604051808215151515815260200191505060405180910390f35b34801561067f57600080fd5b506106fa600480360381019080803573ffffffffffffffffffffffffffffffffffffffff169060200190929190803590602001908201803590602001908080601f01602080910402602001604051908101604052809392919081815260200183838082843782019150505050505091929192905050506111ea565b604051808215151515815260200191505060405180910390f35b34801561072057600080fd5b506107296112c2565b6040518082815260200191505060405180910390f35b34801561074b57600080fd5b506107c6600480360381019080803573ffffffffffffffffffffffffffffffffffffffff169060200190929190803590602001908201803590602001908080601f01602080910402602001604051908101604052809392919081815260200183838082843782019150505050505091929192905050506112cf565b005b3480156107d457600080fd5b5061084f600480360381019080803590602001908201803590602001908080601f0160208091040260200160405190810160405280939291908181526020018383808284378201915050505050509192919290803573ffffffffffffffffffffffffffffffffffffffff169060200190929190505050611521565b604051808215151515815260200191505060405180910390f35b61087282610c61565b15801561088657506108848282611521565b155b151561089157600080fd5b6000826040518082805190602001908083835b6020831015156108c957805182526020820191506020810190506020830392506108a4565b6001836020036101000a03801982511681845116808217855250505050505090500191505090815260200160405180910390206002018190806001815401808255809150509060018203906000526020600020016000909192909190916101000a81548173ffffffffffffffffffffffffffffffffffffffff021916908373ffffffffffffffffffffffffffffffffffffffff1602179055505061096c82610c61565b15610a775761097a82610d53565b61098383610be7565b1115610a0157600080836040518082805190602001908083835b6020831015156109c2578051825260208201915060208101905060208303925061099d565b6001836020036101000a038019825116818451168082178552505050505050905001915050908152602001604051809103902060010181905550610a76565b60026000836040518082805190602001908083835b602083101515610a3b5780518252602082019150602081019050602083039250610a16565b6001836020036101000a0380198251168184511680821785525050505050509050019150509081526020016040518091039020600101819055505b5b5050565b6000806000836040518082805190602001908083835b602083101515610ab65780518252602082019150602081019050602083039250610a91565b6001836020036101000a038019825116818451168082178552505050505050905001915050908152602001604051809103902060000160009054906101000a900473ffffffffffffffffffffffffffffffffffffffff1673ffffffffffffffffffffffffffffffffffffffff1614159050919050565b600181815481101515610b3b57fe5b906000526020600020016000915090508054600181600116156101000203166002900480601f016020809104026020016040519081016040528092919081815260200182805460018160011615610100020316600290048015610bdf5780601f10610bb457610100808354040283529160200191610bdf565b820191906000526020600020905b815481529060010190602001808311610bc257829003601f168201915b505050505081565b600080826040518082805190602001908083835b602083101515610c205780518252602082019150602081019050602083039250610bfb565b6001836020036101000a0380198251168184511680821785525050505050509050019150509081526020016040518091039020600201805490509050919050565b600060056000836040518082805190602001908083835b602083101515610c9d5780518252602082019150602081019050602083039250610c78565b6001836020036101000a0380198251168184511680821785525050505050509050019150509081526020016040518091039020600301805490506000846040518082805190602001908083835b602083101515610d0f5780518252602082019150602081019050602083039250610cea565b6001836020036101000a0380198251168184511680821785525050505050509050019150509081526020016040518091039020600201805490500110159050919050565b600080826040518082805190602001908083835b602083101515610d8c5780518252602082019150602081019050602083039250610d67565b6001836020036101000a0380198251168184511680821785525050505050509050019150509081526020016040518091039020600301805490509050919050565b6060600182815481101515610dde57fe5b906000526020600020018054600181600116156101000203166002900480601f016020809104026020016040519081016040528092919081815260200182805460018160011615610100020316600290048015610e7c5780601f10610e5157610100808354040283529160200191610e7c565b820191906000526020600020905b815481529060010190602001808311610e5f57829003601f168201915b50505050509050919050565b610e9182610c61565b158015610ea55750610ea38282611521565b155b1515610eb057600080fd5b6000826040518082805190602001908083835b602083101515610ee85780518252602082019150602081019050602083039250610ec3565b6001836020036101000a03801982511681845116808217855250505050505090500191505090815260200160405180910390206003018190806001815401808255809150509060018203906000526020600020016000909192909190916101000a81548173ffffffffffffffffffffffffffffffffffffffff021916908373ffffffffffffffffffffffffffffffffffffffff16021790555050610f8b82610c61565b1561109657610f9982610d53565b610fa283610be7565b111561102057600080836040518082805190602001908083835b602083101515610fe15780518252602082019150602081019050602083039250610fbc565b6001836020036101000a038019825116818451168082178552505050505050905001915050908152602001604051809103902060010181905550611095565b60026000836040518082805190602001908083835b60208310151561105a5780518252602082019150602081019050602083039250611035565b6001836020036101000a0380198251168184511680821785525050505050509050019150509081526020016040518091039020600101819055505b5b5050565b600080826040518082805190602001908083835b6020831015156110d357805182526020820191506020810190506020830392506110ae565b6001836020036101000a0380198251168184511680821785525050505050509050019150509081526020016040518091039020600101549050919050565b6000816040518082805190602001908083835b6020831015156111495780518252602082019150602081019050602083039250611124565b6001836020036101000a038019825116818451168082178552505050505050905001915050604051809103902060001916836040518082805190602001908083835b6020831015156111b0578051825260208201915060208101905060208303925061118b565b6001836020036101000a03801982511681845116808217855250505050505090500191505060405180910390206000191614905092915050565b60008273ffffffffffffffffffffffffffffffffffffffff166000836040518082805190602001908083835b60208310151561123b5780518252602082019150602081019050602083039250611216565b6001836020036101000a038019825116818451168082178552505050505050905001915050908152602001604051809103902060000160009054906101000a900473ffffffffffffffffffffffffffffffffffffffff1673ffffffffffffffffffffffffffffffffffffffff1614156112b757600190506112bc565b600090505b92915050565b6000600180549050905090565b6112d881610a7b565b1515156112e457600080fd5b7fcb0350340ab60d34e10e6ee459109f7c55febf930dfc9e3be704dd0e52ce32b78183600160405180806020018473ffffffffffffffffffffffffffffffffffffffff1673ffffffffffffffffffffffffffffffffffffffff168152602001838152602001828103825285818151815260200191508051906020019080838360005b83811015611381578082015181840152602081019050611366565b50505050905090810190601f1680156113ae5780820380516001836020036101000a031916815260200191505b5094505050505060405180910390a160018190806001815401808255809150509060018203906000526020600020016000909192909190915090805190602001906113fa92919061180a565b5050816000826040518082805190602001908083835b6020831015156114355780518252602082019150602081019050602083039250611410565b6001836020036101000a038019825116818451168082178552505050505050905001915050908152602001604051809103902060000160006101000a81548173ffffffffffffffffffffffffffffffffffffffff021916908373ffffffffffffffffffffffffffffffffffffffff16021790555060016000826040518082805190602001908083835b6020831015156114e357805182526020820191506020810190506020830392506114be565b6001836020036101000a0380198251168184511680821785525050505050509050019150509081526020016040518091039020600101819055505050565b600080600090505b6000846040518082805190602001908083835b602083101515611561578051825260208201915060208101905060208303925061153c565b6001836020036101000a038019825116818451168082178552505050505050905001915050908152602001604051809103902060020180549050811015611691578273ffffffffffffffffffffffffffffffffffffffff166000856040518082805190602001908083835b6020831015156115f157805182526020820191506020810190506020830392506115cc565b6001836020036101000a03801982511681845116808217855250505050505090500191505090815260200160405180910390206002018281548110151561163457fe5b9060005260206000200160009054906101000a900473ffffffffffffffffffffffffffffffffffffffff1673ffffffffffffffffffffffffffffffffffffffff1614156116845760019150611803565b8080600101915050611529565b600090505b6000846040518082805190602001908083835b6020831015156116ce57805182526020820191506020810190506020830392506116a9565b6001836020036101000a0380198251168184511680821785525050505050509050019150509081526020016040518091039020600301805490508110156117fe578273ffffffffffffffffffffffffffffffffffffffff166000856040518082805190602001908083835b60208310151561175e5780518252602082019150602081019050602083039250611739565b6001836020036101000a0380198251168184511680821785525050505050509050019150509081526020016040518091039020600301828154811015156117a157fe5b9060005260206000200160009054906101000a900473ffffffffffffffffffffffffffffffffffffffff1673ffffffffffffffffffffffffffffffffffffffff1614156117f15760019150611803565b8080600101915050611696565b600091505b5092915050565b828054600181600116156101000203166002900490600052602060002090601f016020900481019282601f1061184b57805160ff1916838001178555611879565b82800160010185558215611879579182015b8281111561187857825182559160200191906001019061185d565b5b509050611886919061188a565b5090565b6118ac91905b808211156118a8576000816000905550600101611890565b5090565b905600a165627a7a72305820b2c2e9dfc21bc3a09be5c8e7e50941fb0238343bc78589f5acfcc462c12ef5970029",
  "source": "// Contract to store document. Document hash value, document owner and document status are stored. Also the reviewer who upvoted or downvoted are stored.\npragma solidity ^0.4.24 ;\n\ncontract SimpleStorage {\n\t\n\t// Document storage struct\n\tstruct DocStruct {\n    address index;\n  \tuint status;\n    address[] upvote;\n    address[] downvote;\n  }\n  \n  // Document structs are mapped to hash values\n  mapping(string => DocStruct) private docStructs;\n  string[] public hashes;\n\n  event AddNewFile(string hash, address userAddress, uint status);\n \n  // Function to insert a document in mapping\n  function insertDoc(address userAddress, string hash) public \n  {\n    require(!isDocPresent(hash));\n    AddNewFile(hash, userAddress, 1);\n    hashes.push(hash);\n    docStructs[hash].index = userAddress;\n    docStructs[hash].status = 1;\n  }\n\n  // Function to check if a document is already present\n  function isDocPresent(string hashval) view returns(bool)\n  {\n    return (docStructs[hashval].index != 0x0);\n  }\n\n  // Function to check if given address is owner of document\n  function isOwner(address userAddress, string h) constant returns(bool b)\n  {\n    if (docStructs[h].index == userAddress) \n    {\n      return true;\n    }\n    return false;\n  }  \n\n  // Function to return hash value of document\n  function displayHash(uint num) constant returns(string hash)\n  {\n    return hashes[num];\n  }\n\n  // Function to return status of document\n  function displayDocStatus(string hash) constant returns(uint status)\n  {\n    return docStructs[hash].status;\n  }\n\n  // Function to return count of uploaded documents\n  function displayDocCount() constant returns(uint count)\n  {\n    return hashes.length;\n  }\n\t\n  // Function to upvote a document by reviewer\n  function upVote(string dochash, address CAaddr)\n  public\n  {\n    require(!isAudited(dochash) && !isVoted(dochash, CAaddr));\n    docStructs[dochash].upvote.push(CAaddr);\n    \n    if(isAudited(dochash))\n      {\n        if(getUpvoteCount(dochash) > getDownvoteCount(dochash))\n          {\n            docStructs[dochash].status = 0;\n          }\n        else\n          {\n            docStructs[dochash].status = 2;\n          }\n      }\n  }\n  \n  // Function to downvote a document by reviewer\n  function downVote(string dochash, address CAaddr)\n  public\n  {\n    require(!isAudited(dochash) && !isVoted(dochash, CAaddr));\n    docStructs[dochash].downvote.push(CAaddr);\n    if(isAudited(dochash))\n      {\n        if(getUpvoteCount(dochash) > getDownvoteCount(dochash))\n          {\n            docStructs[dochash].status = 0;\n          }\n        else\n          {\n            docStructs[dochash].status = 2;\n          }\n      }\n  }\n  \n  // Function to check if a reviewer has already voted for a document\n  function isVoted(string dochash, address addr)\n  view returns(bool)\n  {\n    for(uint i=0;i<docStructs[dochash].upvote.length;i++)\n      {\n        if(docStructs[dochash].upvote[i] == addr)\n          {\n            return true;\n          }\n      }\n    for(i=0;i<docStructs[dochash].downvote.length;i++)\n      {\n        if(docStructs[dochash].downvote[i] == addr)\n          {\n            return true;\n          }\n      }\n    return false;\n  }\n  \n  // Function to check if a document has been approved/disapproved\n  function isAudited(string dochash)\n  view returns (bool)\n  {\n    return ((docStructs[dochash].upvote.length + docStructs[dochash].downvote.length) >= 5);\n  }\n  \n  // Function to get number of upvotes\n  function getUpvoteCount(string dochash)\n  view returns(uint)\n  {\n    return (docStructs[dochash].upvote.length);\n  }\n  \n  // Function to get number of downvotes\n  function getDownvoteCount(string dochash)\n  view returns(uint)\n  {\n    return (docStructs[dochash].downvote.length);\n  }\n  \n  // Function to compare string values\n  function compareStrings (string a, string b) \n  view returns (bool)\n  {\n       return keccak256(a) == keccak256(b);\n   }\n\n}\n\n",
  "sourcePath": "/root/Documents/Development/AI-and-Blockchain/dApps/smart-reviewing-system/contracts/SimpleStorage.sol",
  "compiler": {
    "name": "solc",
    "version": "0.4.24+commit.e67f0147.Emscripten.clang"
  },
  "schemaVersion": "2.0.0",
  "updatedAt": "2018-09-06T04:14:54.252Z"
}