{
  "contractName": "User",
  "abi": [
    {
      "anonymous": false,
      "inputs": [
        {
          "indexed": true,
          "name": "userAddress",
          "type": "address"
        },
        {
          "indexed": false,
          "name": "index",
          "type": "uint256"
        },
        {
          "indexed": false,
          "name": "category",
          "type": "string"
        }
      ],
      "name": "LogNewUser",
      "type": "event"
    },
    {
      "anonymous": false,
      "inputs": [
        {
          "indexed": true,
          "name": "userAddress",
          "type": "address"
        },
        {
          "indexed": false,
          "name": "index",
          "type": "uint256"
        },
        {
          "indexed": false,
          "name": "category",
          "type": "string"
        }
      ],
      "name": "LogUpdateUser",
      "type": "event"
    },
    {
      "constant": true,
      "inputs": [
        {
          "name": "userAddress",
          "type": "address"
        }
      ],
      "name": "isUser",
      "outputs": [
        {
          "name": "isIndeed",
          "type": "bool"
        }
      ],
      "payable": false,
      "stateMutability": "view",
      "type": "function"
    },
    {
      "constant": false,
      "inputs": [
        {
          "name": "userAddress",
          "type": "address"
        },
        {
          "name": "category",
          "type": "string"
        }
      ],
      "name": "insertUser",
      "outputs": [
        {
          "name": "index",
          "type": "uint256"
        }
      ],
      "payable": false,
      "stateMutability": "nonpayable",
      "type": "function"
    },
    {
      "constant": true,
      "inputs": [
        {
          "name": "userAddress",
          "type": "address"
        }
      ],
      "name": "getUser",
      "outputs": [
        {
          "name": "category",
          "type": "string"
        },
        {
          "name": "index",
          "type": "uint256"
        }
      ],
      "payable": false,
      "stateMutability": "view",
      "type": "function"
    },
    {
      "constant": true,
      "inputs": [
        {
          "name": "userAddress",
          "type": "address"
        }
      ],
      "name": "getUserCategory",
      "outputs": [
        {
          "name": "category",
          "type": "string"
        }
      ],
      "payable": false,
      "stateMutability": "view",
      "type": "function"
    },
    {
      "constant": false,
      "inputs": [
        {
          "name": "userAddress",
          "type": "address"
        },
        {
          "name": "category",
          "type": "string"
        }
      ],
      "name": "updateUsercategory",
      "outputs": [
        {
          "name": "success",
          "type": "bool"
        }
      ],
      "payable": false,
      "stateMutability": "nonpayable",
      "type": "function"
    },
    {
      "constant": true,
      "inputs": [],
      "name": "getUserCount",
      "outputs": [
        {
          "name": "count",
          "type": "uint256"
        }
      ],
      "payable": false,
      "stateMutability": "view",
      "type": "function"
    },
    {
      "constant": true,
      "inputs": [
        {
          "name": "index",
          "type": "uint256"
        }
      ],
      "name": "getUserAtIndex",
      "outputs": [
        {
          "name": "userAddress",
          "type": "address"
        }
      ],
      "payable": false,
      "stateMutability": "view",
      "type": "function"
    }
  ],
  "bytecode": "0x608060405234801561001057600080fd5b50610ca8806100206000396000f300608060405260043610610083576000357c0100000000000000000000000000000000000000000000000000000000900463ffffffff1680634209fff1146100885780636f77926b146100e35780638c7825b0146101a6578063969a2b3914610247578063b5cb15f7146102e4578063dc4bc06e1461030f578063ffcc7bbf146103cb575b600080fd5b34801561009457600080fd5b506100c9600480360381019080803573ffffffffffffffffffffffffffffffffffffffff169060200190929190505050610438565b604051808215151515815260200191505060405180910390f35b3480156100ef57600080fd5b50610124600480360381019080803573ffffffffffffffffffffffffffffffffffffffff169060200190929190505050610501565b6040518080602001838152602001828103825284818151815260200191508051906020019080838360005b8381101561016a57808201518184015260208101905061014f565b50505050905090810190601f1680156101975780820380516001836020036101000a031916815260200191505b50935050505060405180910390f35b3480156101b257600080fd5b5061022d600480360381019080803573ffffffffffffffffffffffffffffffffffffffff169060200190929190803590602001908201803590602001908080601f0160208091040260200160405190810160405280939291908181526020018383808284378201915050505050509192919290505050610641565b604051808215151515815260200191505060405180910390f35b34801561025357600080fd5b506102ce600480360381019080803573ffffffffffffffffffffffffffffffffffffffff169060200190929190803590602001908201803590602001908080601f0160208091040260200160405190810160405280939291908181526020018383808284378201915050505050509192919290505050610810565b6040518082815260200191505060405180910390f35b3480156102f057600080fd5b506102f9610a90565b6040518082815260200191505060405180910390f35b34801561031b57600080fd5b50610350600480360381019080803573ffffffffffffffffffffffffffffffffffffffff169060200190929190505050610a9d565b6040518080602001828103825283818151815260200191508051906020019080838360005b83811015610390578082015181840152602081019050610375565b50505050905090810190601f1680156103bd5780820380516001836020036101000a031916815260200191505b509250505060405180910390f35b3480156103d757600080fd5b506103f660048036038101908080359060200190929190505050610b94565b604051808273ffffffffffffffffffffffffffffffffffffffff1673ffffffffffffffffffffffffffffffffffffffff16815260200191505060405180910390f35b600080600180549050141561045057600090506104fc565b8173ffffffffffffffffffffffffffffffffffffffff1660016000808573ffffffffffffffffffffffffffffffffffffffff1673ffffffffffffffffffffffffffffffffffffffff168152602001908152602001600020600101548154811015156104b757fe5b9060005260206000200160009054906101000a900473ffffffffffffffffffffffffffffffffffffffff1673ffffffffffffffffffffffffffffffffffffffff161490505b919050565b6060600061050e83610438565b151561051957600080fd5b6000808473ffffffffffffffffffffffffffffffffffffffff1673ffffffffffffffffffffffffffffffffffffffff1681526020019081526020016000206000016000808573ffffffffffffffffffffffffffffffffffffffff1673ffffffffffffffffffffffffffffffffffffffff16815260200190815260200160002060010154818054600181600116156101000203166002900480601f0160208091040260200160405190810160405280929190818152602001828054600181600116156101000203166002900480156106315780601f1061060657610100808354040283529160200191610631565b820191906000526020600020905b81548152906001019060200180831161061457829003601f168201915b5050505050915091509150915091565b600061064c83610438565b151561065757600080fd5b816000808573ffffffffffffffffffffffffffffffffffffffff1673ffffffffffffffffffffffffffffffffffffffff16815260200190815260200160002060000190805190602001906106ac929190610bd7565b508273ffffffffffffffffffffffffffffffffffffffff167fbc232c89e6bb55205c8f3c3faa1ec2f0270a3023cab2b01cccec8996ff5d5bfe6000808673ffffffffffffffffffffffffffffffffffffffff1673ffffffffffffffffffffffffffffffffffffffff168152602001908152602001600020600101546000808773ffffffffffffffffffffffffffffffffffffffff1673ffffffffffffffffffffffffffffffffffffffff16815260200190815260200160002060000160405180838152602001806020018281038252838181546001816001161561010002031660029004815260200191508054600181600116156101000203166002900480156107f75780601f106107cc576101008083540402835291602001916107f7565b820191906000526020600020905b8154815290600101906020018083116107da57829003601f168201915b5050935050505060405180910390a26001905092915050565b600061081b83610438565b1561082557600080fd5b816000808573ffffffffffffffffffffffffffffffffffffffff1673ffffffffffffffffffffffffffffffffffffffff168152602001908152602001600020600001908051906020019061087a929190610bd7565b506001808490806001815401808255809150509060018203906000526020600020016000909192909190916101000a81548173ffffffffffffffffffffffffffffffffffffffff021916908373ffffffffffffffffffffffffffffffffffffffff160217905550036000808573ffffffffffffffffffffffffffffffffffffffff1673ffffffffffffffffffffffffffffffffffffffff168152602001908152602001600020600101819055508273ffffffffffffffffffffffffffffffffffffffff167f1ebf925978e1982ddb1157dbd639436963b5345ccf86d4828909346867d4ab1d6000808673ffffffffffffffffffffffffffffffffffffffff1673ffffffffffffffffffffffffffffffffffffffff168152602001908152602001600020600101546000808773ffffffffffffffffffffffffffffffffffffffff1673ffffffffffffffffffffffffffffffffffffffff1681526020019081526020016000206000016040518083815260200180602001828103825283818154600181600116156101000203166002900481526020019150805460018160011615610100020316600290048015610a715780601f10610a4657610100808354040283529160200191610a71565b820191906000526020600020905b815481529060010190602001808311610a5457829003601f168201915b5050935050505060405180910390a26001808054905003905092915050565b6000600180549050905090565b6060610aa882610438565b1515610ab357600080fd5b6000808373ffffffffffffffffffffffffffffffffffffffff1673ffffffffffffffffffffffffffffffffffffffff1681526020019081526020016000206000018054600181600116156101000203166002900480601f016020809104026020016040519081016040528092919081815260200182805460018160011615610100020316600290048015610b885780601f10610b5d57610100808354040283529160200191610b88565b820191906000526020600020905b815481529060010190602001808311610b6b57829003601f168201915b50505050509050919050565b6000600182815481101515610ba557fe5b9060005260206000200160009054906101000a900473ffffffffffffffffffffffffffffffffffffffff169050919050565b828054600181600116156101000203166002900490600052602060002090601f016020900481019282601f10610c1857805160ff1916838001178555610c46565b82800160010185558215610c46579182015b82811115610c45578251825591602001919060010190610c2a565b5b509050610c539190610c57565b5090565b610c7991905b80821115610c75576000816000905550600101610c5d565b5090565b905600a165627a7a7230582001007e35a41817bbbec039337abed988f5fd7493bde6028b128e181b16b73bc40029",
  "source": "// Contract to store user\npragma solidity^0.4.19;\n\ncontract User {\n\n  // User storage struct\n  struct UserStruct {\n\tstring category;\n    uint index;\n  }\n  \n  // User structures are mapped to addresses\n  mapping(address => UserStruct) private userStructs;\n  address[] private userIndex;\n\n  event LogNewUser   (address indexed userAddress, uint index, string category);\n  event LogUpdateUser(address indexed userAddress, uint index, string category);\n  \n  // Function to check if user is already present\n  function isUser(address userAddress)\n    public view\n    returns(bool isIndeed) \n  {\n    if(userIndex.length == 0) return false;\n    return (userIndex[userStructs[userAddress].index] == userAddress);\n  }\n\n  // Function to insert user\n  function insertUser(address userAddress, string category) \n    public\n    returns(uint index)\n  {\n    if(isUser(userAddress)) throw; \n\tuserStructs[userAddress].category = category;\n    userStructs[userAddress].index     = userIndex.push(userAddress)-1;\n    LogNewUser(userAddress, userStructs[userAddress].index, userStructs[userAddress].category);\n    return userIndex.length-1;\n  }\n  \n  // Function to return user address\n  function getUser(address userAddress)\n    public view\n    returns(string category, uint index)\n  {\n    if(!isUser(userAddress)) throw; \n    return(\n      userStructs[userAddress].category, \n      userStructs[userAddress].index);\n  } \n\n  // Function to get category of user\n  function getUserCategory(address userAddress)\n  \tpublic view returns(string category)\n  {\n    if(!isUser(userAddress)) throw; \n    return userStructs[userAddress].category;\n  }\n\n  // Function to update user category (may not be relevant)\n  function updateUsercategory(address userAddress, string category) \n    public\n    returns(bool success) \n  {\n    if(!isUser(userAddress)) throw; \n    userStructs[userAddress].category = category;\n    LogUpdateUser(userAddress, userStructs[userAddress].index, userStructs[userAddress].category);\n    return true;\n  }\n  \n  // Function to get number of users\n  function getUserCount() \n    public view\n    returns(uint count)\n  {\n    return userIndex.length;\n  }\n\n  // Function to get user at given index\n  function getUserAtIndex(uint index)\n    public view \n    returns(address userAddress)\n  {\n    return userIndex[index];\n  }\n\n}\n",
  "sourcePath": "/root/Documents/Development/AI-and-Blockchain/dApps/smart-reviewing-system/contracts/User.sol",
  "compiler": {
    "name": "solc",
    "version": "0.4.24+commit.e67f0147.Emscripten.clang"
  },
  "schemaVersion": "2.0.0",
  "updatedAt": "2018-09-06T04:14:53.602Z"
}